:020000040000FA
:060800008FEF1CF0120056
:020806001200DE
:060808003FEF0AF01200B0
:02080E00C250D6
:08081000020B01E0010E1200D1
:0608180042EF18F012008F
:02081E000500D3
:10082000D23900005702000004000000CE39000059
:100830005302000004000000CA3900004F0200000B
:1008400004000000C8390000FE01000002000000A2
:0C085000AC390000CB0100001C000000CF
:04085C006AEC09F049
:10086000FB0EDBCFF3FFDB06F35000090AE0B8EC28
:1008700009F0FA0E23EC0AF0F3E12C1CF1E1010E71
:1008800001D0000E99EF09F06AEC09F03B0EE1246B
:1008900002E3E168E652E16E010EDB6A020EDB6AFA
:1008A000F90EDBCFF6FFFA0EDBCFF7FFFB0EDBCF47
:1008B000F8FF0800F550DF6EDF5002E1BFEF08F0EF
:1008C000250EDF5C02E0B2EF08F0030EDB6A040ED7
:1008D000DB6A050EDB6A060EDB6A070EDB6AD2EC0A
:1008E00008F02D0EDF5C0CE02B0EDF5C09E0200E23
:1008F000DF5C06E0230EDF5C03E0300EDF5C1AE114
:10090000DF50300A14E0130A0FE0030A0AE00B0A72
:1009100005E0060AE4E1030EDB80E1D7030EDB828B
:10092000DED7030EDB84DBD7030EDB86D8D7030EBE
:10093000DB88D5D72A0EDF5C1BE1CEEC08F01CEC7F
:1009400009F010E0030EDB801D681E68130EDBCF7C
:1009500022F0140EDBCF23F081EC19F0040E1BC043
:10096000DBFF03D0130E05EC09F0D2EC08F00BD03E
:10097000090EDB6A73EC09F003E0E7EC09F0FAD743
:10098000090E05EC09F0030EDBB0DB982E0EDF5CE0
:100990001BE1D2EC08F02A0EDF5C0BE1CEEC08F094
:1009A0001CEC09F003E1130E57EC09F0D2EC08F04F
:1009B0000BD0090EDB6A73EC09F003E0E7EC09F0F9
:1009C000FAD7090E57EC09F0680EDF5C07E1D2ECAC
:1009D00008F0680EDF5C1DE1030E18D0740EDF5CBA
:1009E00017E07A0EDF5C14E0480EDF5C06E0540E80
:1009F000DF5C03E05A0EDF5C02E1020E07D06C0EF2
:100A0000DF5C03E06A0EDF5C04E1010EAAEC09F092
:100A1000C9DBDF506E0A01E181D31E0A01E192D1E8
:100A2000200A01E18FD13F0A01E149D11A0A01E10F
:100A300046D10D0A01E143D1200A01E140D13A0A31
:100A400001E13DD1200A01E13AD1260A01E135D187
:100A50000D0A01E132D11A0A01E1D9D0200A4AE097
:100A6000300A1FE0460A0EE0250A01E085D3D9507E
:100A7000F90FE96EFF0EDA20EA6E010EEE5E000E4F
:100A8000EE5AEE5AB8EC09F0250EE66E95DB03E15E
:100A90002C1C01E16BD3B4EC09F001E26DD3DB2A2D
:100AA0006BD3080EDB6A040EDB50010806E2040E6D
:100AB000DB047CEC09F0DB508BDB080EDB5009E03B
:100AC000030EDB50010B05E172DB01E04FD3080E92
:100AD000DB6A64DBEFCFDFFF2CEC0AF003E12C1CB8
:100AE00001E144D3B4EC09F001E3DB2A60DB01E16E
:100AF00043D33CD3070EDB5002080FE1F8EC09F0BA
:100B0000030EBFEC09F00E0EEECFDBFF0F0EEECFA3
:100B1000DBFF100EEECFDBFF20D0F70EDBCF2EF089
:100B2000F80EDBCF2FF0020E2E5E000E2F5AF70EBE
:100B30002EC0DBFFF80E2FC0DBFF2EC0E9FF2FC059
:100B4000EAFFAFEC09F02D6A0E0E2BC0DBFF0F0E93
:100B50002CC0DBFF100E2DC0DBFF0E0EDBCFE6FF3F
:100B60000F0EDBCFE6FF100EDBCFE6FF24EC1AF012
:100B7000E552E552E552130E1CC0DBFF140E1DC0FA
:100B8000DBFF060EDB5005E0130EF3EC09F001E28B
:100B90006ADB17EC0AF002E2130E37DBDAEC09F03D
:100BA00006E0040EF3EC09F002E2050E2EDB030E64
:100BB000DBB005D0FCDA01E0D9D2080EDB6A090E01
:100BC000DB6A0E0EDBCFF6FF0F0EDBCFF7FF100E4A
:100BD000DBCFF8FF0800F550DF6EDF5014E01DECAE
:100BE0000AF011E22CEC0AF003E12C1C01E1BED268
:100BF000BBDB01E3DB2A090EDB2AD9500E0FE96EBD
:100C0000000ECBDBE7D7D3DA01E1B6D2AFD2C6DA3A
:100C1000110EEECFDBFF120EEDCFDBFF110EDBCF9F
:100C2000E6FF120EDBCFE6FF16EC1AF0E552E552B6
:100C3000130EF3CFDBFF140EF4CFDBFF060EDB50F9
:100C400004E0130ED0DB01E20EDB17EC0AF002E247
:100C5000130EDBDAAFDB05E0040EC5DB02E2050EA6
:100C6000D4DA030EDBB005D0A2DA01E07FD2080EA1
:100C7000DB6A090EDB6A110EDBCFE9FF120EDBCF58
:100C8000EAFFEFCFDFFFDF5014E0D7DB12E2E4DB57
:100C900003E12C1C01E16AD267DB01E3DB2A090EC8
:100CA000DB2A110EDB2ADBCFE9FF120EE8E3DB2A99
:100CB000E6D77DDA01E160D259D2030EDB8E070E52
:100CC000DB0410E195DB040E5ADB0A0EEECFDBFFEE
:100CD0000B0EEECFDBFF0C0EEECFDBFF0D0EEECFDB
:100CE000DBFF6CD0070EDB5003082CE1030EDBAEFC
:100CF0000DD0B2DA020E76DAEFCF2BF02C6A2D6A25
:100D00002E6A2BAE39D02C682D6835D0F70EDBCF8C
:100D10002CF0F80EDBCF2DF0020E2C5E000E2D5ABB
:100D2000F70E2CC0DBFFF80E2DC0DBFF2CC0E9FF57
:100D30002DC0EAFFEFCF2BF00A0E2BC0DBFF0B0E0E
:100D4000DB6A38D0070EDB50020809E1030EDBAE88
:100D500004D059DB2DAE10D00ED055DB0DD0030ED4
:100D6000DBAE12D079DA020E3DDAF9DA2D6A2E6A9C
:100D70002CAE02D02D682E68E2DA0C0E2DC0DBFFFF
:100D80000D0E2EC0DBFF1AD0F70EDBCF2DF0F80EC4
:100D9000DBCF2EF0020E2D5E000E2E5AF70E2DC068
:100DA000DBFFF80E2EC0DBFF2DC0E9FF2EC0EAFFEF
:100DB000D6DAC5DA0C0EDB6A0D0EDB6A060EDB50E6
:100DC00005E1010EF36E050EF3CFDBFF150EDB6AB6
:100DD000160EDB6AD950370F2B6E000EDA202C6E00
:100DE000390E2BC0DBFF3A0E2CC0DBFF380EDB6A5E
:100DF000080EDB6A0A0EAEDADF50780A12E0200A2B
:100E000010E0280A0CE0200A0AE03F0A06E00D0A7A
:100E100002E0200A08E1020E05D0080E03D0080EF9
:100E2000DF26100E97DA030EDBBE02D0DB92DB94D6
:100E3000DB50800B26E08ADA030EEB50000AE8AEA6
:100E400002D0D89008D0000EEE5C000EEE58000ED6
:100E5000EE58000EEE5815E211DA2068216822687B
:100E60002368D5EC1AF00A0E17C0DBFF0B0E18C072
:100E7000DBFF0C0E19C0DBFF0D0E1AC0DBFF2D0EC1
:100E800008D0030EDBA202D02B0E03D0DBA408D0C7
:100E9000200EF36E170EF3CFDBFF150EDB2A02D008
:100EA000170EDB6A050EDB5003E1B5D901E189D0ED
:100EB000900E2B6E390E2C6E000E2D6E070EDBCFB2
:100EC0002EF02F6A306A316A2EC020F02FC021F038
:100ED00030C022F031C023F0D1D9D8EC1BF02B5018
:100EE0001724F36E2C501820F46E2D501920F86E34
:100EF000F4CFF7FFF3CFF6FF0800090EF5CFDBFFC5
:100F0000580EDF5C0FE1610EF36E090E79D90AE32A
:100F1000200E2B6E090EDBCFE7FF2B50E75E090E8C
:100F2000E7CFDBFF070EDBCF2BF02C6A2D6A2E6A92
:100F30000DDA2BC020F02CC021F02DC022F02EC0E5
:100F400023F0EECF1BF0EECF1CF0EECF1DF0EFCF75
:100F50001EF0D8EC1BF01EC0EDFF1DC0EDFF1CC045
:100F6000EDFF1BC0EFFF390EDBCFE9FFDB063A0ECA
:100F7000DBCFEAFF01E2DB06090EDBCFEFFF150E48
:100F8000DB2A49D995E1030EDBA61DD06F0EDF5C8D
:100F900006E1BFD918E3150EDB2859DA14D0780E14
:100FA000DF5C09E0580EDF5C06E0620EDF5C03E008
:100FB000420EDF5C08E1020EF36E160EF3CFDBFF8C
:100FC00002D0150EDB6A030EDB50100B0EE0040E90
:100FD000DBCF2BF0050EDB50D8802B5406E2060E3B
:100FE000DB5003E1040EDB5032DA93D90AE2050E3E
:100FF000DBCFE7FF150EDB50E75E050EE7CFDBFF2B
:1010000002D0050EDB6A040EDBCF2BF0160E43D99F
:10101000D8802B5414E2160EDBCFE6FF150EDBCF83
:10102000E6FF040EDBCFE6FF050EDB50E552E75C82
:10103000E552D880E754E552D880E7545DD9030ED5
:10104000DB50010B0BE1080EDB5008E0B0D801E0EB
:101050008DD0080EDB50BCD8080EDB6A170EDB50B3
:1010600007E086D9170EEFD903E12C1C01E17ED0F1
:10107000160EDB5016E07CD9300EE66E9DD802E1EC
:101080002C1C74E075D9DFCFE6FF93EC1AF0E55223
:10109000E552E552F4CF2CF00001F31C02E12C1CC8
:1010A00065E0050EDBCF2BF0160EDB50D8802B54FD
:1010B00009E2050EDBCFE7FF160EDB50E75E050EFB
:1010C000E7CFDBFF300EE66E050EC9D94FE1390ED2
:1010D000DB2ADBCFE9FF3A0E01E3DB2ADBCFEAFFB5
:1010E000090EEFCFDBFFDB500EE042D9090EABD982
:1010F00002E12C1C3BE0390EDB2ADBCFE9FF3A0E84
:10110000EDE3DB2AEBD753D831E1160EDBCFE6FF58
:10111000080EC1D8E552E7245BD82ED0070EDB506D
:10112000030A1CE0010A14E0030A07E079D9DBCFC7
:10113000EEFF020EDBCFEDFF1FD0F3D8306A2EAEEC
:1011400002D02F6830682AD8BAD830C0EEFF14D049
:10115000E8D82EBE2F6822D8B2D80ED061D9DBCF06
:10116000EFFF0AD079D905E12C1C03E1F368F4689C
:1011700010D0FAD801E3DB2A77D959EF04F0010E39
:10118000DBCF2BF0020EDBCF2CF02BC0F3FF2CC0FB
:10119000F4FFD9CFE1FFDACFE2FFCBD029D9020E9D
:1011A000BFEF09F061D90800F550DF6E1200200E84
:1011B000E66E080E2FEF0AF093EC1AF0E552E552B6
:1011C000E552F3CF2BF0F4CF2CF00001F31C12000A
:1011D0002B6E2C6AD950010F4DD92B50EE262C5076
:1011E000ED2212002F5E000E305AF70E2FC0DBFFEB
:1011F000F80E30C0DBFF2FC0E9FF30C0EAFF12005D
:10120000DBCFF4FFF350F45C1200DB50E76E040E0A
:10121000E7CFDBFF12000A0EDBCF2BF00B0EDBCF8C
:101220002CF00C0EDBCF2DF00D0EDBCF2EF02B5063
:101230002C102D102E101200130EEECFDBFF140E0B
:10124000EDCFDBFF130EDBCF2BF0140EDBCF2CF03A
:101250000001800E2C141200F70EDBCF2FF0F80ED9
:10126000DBCF30F01200050EDB50E66ED950130FC5
:1012700001D9E552E750EE6EED6A12000A0EDBCF9F
:101280001BF00B0EDBCF1CF00C0EDBCF1DF00D0E98
:10129000DBCF1EF01200DBCFE6FF150EDBCFE6FF43
:1012A000050EDB50E552E724E552E7241200DB503F
:1012B000CED8010EF36E060EF3CFDBFF1200EE5018
:1012C000EFCFEAFFE96E2DC0EEFF2EC0EEFF2FC07C
:1012D000EEFF1200D9CFE6FFDACFE6FFE1CFD9FF6C
:1012E000E2CFDAFF1200DFCFE6FFE66A7DEC1CF00A
:1012F000E552E552F3501200E76E080EE7CFDBFF30
:101300001200EECF2BF0EECF2CF0EFCF2DF02E6AA7
:101310001200050EDBCF2BF0150EDB50D8802B54BE
:101320001200010EDBCF2DF0020EDBCF2EF02F6A64
:101330001200E552E5CFDAFFE7CFD9FF12000A0E1F
:101340002BC0DBFF0B0E2CC0DBFF1200D9500A0FA5
:101350003AEF0AF0F36E070EF3CFDBFF1200EECF89
:101360002BF0EFCF2CF01200010EDB2A020E120040
:10137000FC0EDBCFE6FFFD0EDBCFE6FF12002B5E9F
:10138000000E2C5AF70E2BC0DBFFF80E2CC0DBFF33
:101390002BC0E9FF2CC0EAFF1200DA20EA6EEF2A28
:1013A000EECFF6FF000EEF22EECFF7FFEF22EECFEB
:1013B000F8FF1200040EDBCFE6FF130EDB50E55200
:1013C000E75C9ADFDB5004DF060EDB501200090EEB
:1013D000DB500A0DF350DF24D00FE76E090EE7CF84
:1013E000DBFFD2EF08F0DB50F36E050E00EF09F0E3
:1013F000F70EDBCF2BF0F80EDBCF2CF01200DFCF97
:10140000E6FFDCEF08F028DF030EECDE81EF09F0E9
:101410002EEC04F0E552E552E552E55200091200C7
:10142000BDDEEE50EFCFEAFFE96E010E1200130EA3
:10143000DB50F36E040E00EF09F0040EDB50F36E88
:10144000090E00EF09F0DBCFE6FFDCEF08F0E76EF6
:10145000050EE7CFDBFF12008BDFFFEF09F0DBCFDC
:10146000E6FF86DF08EF0AF0D950F90FE96EFF0EAC
:0E147000CDEF09F0E96E000EDA20EA6E1200F0
:02147E00D8CFC5
:10148000E4FFE0CFE4FFE46EDACFE4FFE2CFDAFF7F
:10149000E9CFE4FFEACFE4FFE652F2A202D0A5D8FA
:1014A00002D09EB6D1D8E552E5CFEAFFE5CFE9FFFD
:1014B000E5CFDAFFE550E5CFE0FFE5CFD8FF10003C
:1014C000E66A010EE66E050EE66E41EC1BF0E55293
:1014D000E552E5521200070EB46E000E886E876E5C
:1014E000866E856E846E836E826E816E806E916E66
:1014F000906E8F6E8E6E8D6E8C6E8B6E8A6E896E18
:101500002F0E926E93689C0E946E956A966A9768F9
:10151000040E986E0E0E9A6E9968C16AF19EB0988C
:101520009C8EA26A9F6AA06A9D6AA36AA56AC8DFA8
:101530009F86D08E9E969D869382F06AF288F09E5A
:10154000F098F192F09AF16AF28CF28E1200D9CFF3
:10155000E6FFE1CFD9FFE652BEDF02014097409996
:101560000101040EF26F020EF36FDF6A100EDF5CF2
:101570000AE2DF50EA6AF225E96EF351EA227F0EB1
:10158000EF6EDF2AF3D702011D6B010E1E6FC20E34
:101590001F6F020140850201226B236B0201006B69
:1015A000026B036B010ED56E320ED76ECF0ED66E68
:1015B000D59E000EE66E020EE66E8BD8E552E55221
:1015C00002014093000EE66E020EE66E82D8E552EE
:1015D000E55202014093E552E552E7CFD9FF1200F0
:1015E00082828088949292981200F2920101200ED9
:1015F000EE6F9F86020140A906D00101E00EEB6F5D
:10160000000EEC6F05D00101C00EEB6F000EEC6F09
:10161000020140A1407940A706D00101800EE96F88
:10162000000EEA6F05D00101A00EE96F000EEA6F0F
:10163000C9CFEFF1E9C1E9FFEAC1EAFFE92B000EEA
:10164000EA23EF50C96E12009E96C9CFEFF1010157
:10165000EE51000823E2EBC1E9FFECC1EAFFEB2BFE
:10166000000EEC23EFC1EFFFE9C1E9FFEAC1EAFF99
:10167000E92BEA23EFCFEFF1EFC1C9FFEE07EE51FF
:101680000CE10201020E1E6F020140934081320EF6
:10169000D76ECF0ED66EF294D58E01D0C96A1200E5
:1016A000D9CFE6FFE1CFD9FF020140A10ED0FD0E58
:1016B000DBCFE6FFFE0EDBCFE6FF43EC16F0E55294
:1016C000E5529D96020140919D86E552E7CFD9FFF4
:1016D0001200D9CFE6FFE1CFD9FF020140B332D0EB
:1016E000FD0EDBCFE9FFFE0EDBCFEAFF1E0EE92683
:1016F000000EEA22EF50020809E1FD0EDBCFE6FF03
:10170000FE0EDBCFE6FF69D8E552E552FD0EDBCFDA
:10171000E9FFFE0EDBCFEAFF150EE926000EEA22F6
:10172000EF9EFD0EDBCFE6FFFE0EDBCFE6FFB1EC5A
:1017300015F0E552E5529D960201407740839D8663
:1017400002011D2BE552E7CFD9FF12009D96020141
:1017500040919D861200D9CFE6FFE1CFD9FF00016D
:10176000166BD950FD0FE96EFF0EDA20EA6E010EFE
:10177000EE1801E1ED5002E1168101D0BA6AD950AC
:10178000FB0FE96EFF0EDA20EA6E010EEE1801E1A2
:10179000ED5002E1168301D0B76AD950F90FE96E16
:1017A000FF0EDA20EA6E010EEE1801E1ED5002E1C3
:1017B000168501D0736AD950F70FE96EFF0EDA2053
:1017C000EA6E010EEE1801E1ED5002E1168701D03C
:1017D000706AE552E7CFD9FF1200D9CFE6FFE1CF1B
:1017E000D9FFFD0EDBCFE9FFFE0EDBCFEAFF1C0EBB
:1017F000E926000EEA22EF6AFD0EDBCFE9FFFE0EBE
:10180000DBCFEAFF170EE926000EEA22EF6AC6AE2A
:101810000ED0C69EFD0EDBCFE9FFFE0EDBCFEAFF4A
:10182000170EE926000EEA22010EEF6E22D0F150CB
:10183000800B10E0F250080B0DE0FD0EDBCFE9FF4E
:10184000FE0EDBCFEAFF170EE926000EEA22020E9B
:10185000EF6E0FD0F0A60DD0909EFD0EDBCFE9FF0E
:10186000FE0EDBCFEAFF170EE926000EEA22030E7A
:10187000EF6E250EC614250819E0FD0EDBCFE9FF3B
:10188000FE0EDBCFEAFF1C0EE926000EEA22010E57
:10189000EF6EFD0EDBCFE9FFFE0EDBCFEAFF170E8A
:1018A000E926000EEA22C6CFEFFF80D1C55019E02D
:1018B000FD0EDBCFE9FFFE0EDBCFEAFF1C0EE926B3
:1018C000000EEA22020EEF6EFD0EDBCFE9FFFE0EE8
:1018D000DBCFEAFF170EE926000EEA22C5CFEFFFA5
:1018E00065D1D0BE19D0FD0EDBCFE9FFFE0EDBCFF8
:1018F000EAFF1C0EE926000EEA22030EEF6EFD0E33
:10190000DBCFE9FFFE0EDBCFEAFF170EE926000E64
:10191000EA22D0CFEFFF4AD19DB619D0FD0EDBCF22
:10192000E9FFFE0EDBCFEAFF1C0EE926000EEA22DD
:10193000040EEF6EFD0EDBCFE9FFFE0EDBCFEAFFFC
:10194000170EE926000EEA229DCFEFFF2FD19C5003
:1019500019E0FD0EDBCFE9FFFE0EDBCFEAFF1C0E28
:10196000E926000EEA22050EEF6EFD0EDBCFE9FF41
:10197000FE0EDBCFEAFF170EE926000EEA229CCF0F
:10198000EFFF14D1080E9F5C19E0FD0EDBCFE9FFDD
:10199000FE0EDBCFEAFF1C0EE926000EEA22060E41
:1019A000EF6EFD0EDBCFE9FFFE0EDBCFEAFF170E79
:1019B000E926000EEA229FCFEFFFF8D0A25019E0EF
:1019C000FD0EDBCFE9FFFE0EDBCFEAFF1C0EE926A2
:1019D000000EEA22070EEF6EFD0EDBCFE9FFFE0ED2
:1019E000DBCFEAFF170EE926000EEA22A2CFEFFFB7
:1019F000DDD0A55019E0FD0EDBCFE9FFFE0EDBCFF9
:101A0000EAFF1C0EE926000EEA22080EEF6EFD0E1C
:101A1000DBCFE9FFFE0EDBCFEAFF170EE926000E53
:101A2000EA22A5CFEFFFC2D0100EF214100819E081
:101A3000FD0EDBCFE9FFFE0EDBCFEAFF1C0EE92631
:101A4000000EEA22090EEF6EFD0EDBCFE9FFFE0E5F
:101A5000DBCFEAFF170EE926000EEA22F2CFEFFFF6
:101A6000A5D0470EF11419E0FD0EDBCFE9FFFE0E05
:101A7000DBCFEAFF1C0EE926000EEA220A0EEF6E0B
:101A8000FD0EDBCFE9FFFE0EDBCFEAFF170EE926E6
:101A9000000EEA22F1CFEFFF89D0C00EF01419E05A
:101AA000FD0EDBCFE9FFFE0EDBCFEAFF1C0EE926C1
:101AB000000EEA220B0EEF6EFD0EDBCFE9FFFE0EED
:101AC000DBCFEAFF170EE926000EEA22F0CFEFFF88
:101AD0006DD092A819D0FD0EDBCFE9FFFE0EDBCF53
:101AE000EAFF1C0EE926000EEA220C0EEF6EFD0E38
:101AF000DBCFE9FFFE0EDBCFEAFF170EE926000E73
:101B0000EA2292CFEFFF52D093B019D0FD0EDBCF77
:101B1000E9FFFE0EDBCFEAFF1C0EE926000EEA22EB
:101B20000D0EEF6EFD0EDBCFE9FFFE0EDBCFEAFF01
:101B3000170EE926000EEA2293CFEFFF37D03E0EB4
:101B400094141C0819E0FD0EDBCFE9FFFE0EDBCF7D
:101B5000EAFF1C0EE926000EEA220E0EEF6EFD0EC5
:101B6000DBCFE9FFFE0EDBCFEAFF170EE926000E02
:101B7000EA2294CFEFFF1AD097BE18D0FD0EDBCF2C
:101B8000E9FFFE0EDBCFEAFF1C0EE926000EEA227B
:101B90000F0EEF6EFD0EDBCFE9FFFE0EDBCFEAFF8F
:101BA000170EE926000EEA2297CFEFFFE552E7CFA6
:041BB000D9FF120047
:0C1BB400D9CFE6FFE1CFD9FFF29CFD0E77
:101BC000DBCFE9FFFE0EDBCFEAFFEE52EF6AFD0E40
:101BD000DBCFE9FFFE0EDBCFEAFF540EE926000E55
:101BE000EA22EF6AF28CE552E7CFD9FF1200D9CF93
:101BF000E6FFE1CFD9FFE6520101AE0E5D6F0F0E99
:101C00005E6FAD0E5F6F0F0E606F010E086F080EF6
:101C1000E66E010EE66ECEDFE552E55201016E0E74
:101C2000B66F0F0EB76F6D0EB86F0F0EB96F020E55
:101C3000616F610EE66E010EE66EBCDFE552E552A5
:101C4000150EE66E7C0EE66EA6EC1BF0E552E55234
:101C50009F989F9A949C948EAE50DF6EAE50DF6E2C
:101C60009E9A150EE66E7C0EE66E74EC1BF0E55245
:101C7000E552A59AA598989298846E50DF6E6E50A2
:101C8000DF6EA49A0101BA6BE552E552E7CFD9FFA6
:101C90001200D9CFE6FFE1CFD9FFFD0EDBCFE9FF80
:101CA000FE0EDBCFEAFFEF0402E19D8801D0A3889E
:101CB000E552E7CFD9FF1200D9CFE6FFE1CFD9FF38
:101CC000D950FD0FE96EFF0EDA20EA6EEE50ED10EE
:101CD0000AE19EA807D0080EE66E010EE66ED9DF77
:101CE000E552E55209D0A4A807D0610EE66E010EB8
:101CF000E66ECFDFE552E552E552E7CFD9FF12009D
:101D0000D9CFE6FFE1CFD9FFD950FD0FE96EFF0E25
:101D1000DA20EA6EEE50ED1005E1ABB2AB98AB887D
:101D20009D8A04D06BB26B986B88A38AE552E7CF8B
:101D3000D9FF1200D9CFE6FFE1CFD9FFFD0EDBCFEF
:101D4000E9FFFE0EDBCFEAFFEF0403E19E989D98CA
:101D500002D0A498A398E552E7CFD9FF1200D9CFBB
:101D6000E6FFE1CFD9FFFD0EDBCFE9FFFE0EDBCFB3
:101D7000EAFFEE52EF500AE1FD0EDBCFE6FFFE0E6A
:101D8000DBCFE6FFD7DFE552E5522FD0FD0EDBCFEC
:101D9000E9FFFE0EDBCFEAFF020EE926000EEA2283
:101DA000EECFF3FFEDCFF4FFEE2AEF22F3CFE9FF02
:101DB000F4CFEAFFEF50E66EFD0EDBCFE9FFFE0E3B
:101DC000DBCFEAFF570EE926000EEA22EE50EFCFF6
:101DD000EAFFE96EE552E750EF6EFD0EDBCFE9FF5B
:101DE000FE0EDBCFEAFFEE52EF06E552E7CFD9FF5A
:101DF0001200D9CFE6FFE1CFD9FFE652010106512B
:101E0000060A4FE0030A41E0010A37E0070A2DE025
:101E1000010A1EE0030A0CE0010A02E0066B4FD043
:101E2000066BFE0EDB50C90802E1010E066F47D0BB
:101E3000066B079BFE0EDB50170802E1079D05D0DD
:101E4000FE0EDB50180801E1078D020E066F37D039
:101E5000FE0EDBCF02F1DBCF18F20251800B01E066
:101E6000010EBA6F030E066F2AD0FE0EDBCF03F110
:101E7000DBCF19F2040E066F22D0FE0EDBCF04F189
:101E8000DBCF1AF2050E066F1AD0FE0EDBCF05F17E
:101E9000DBCF1BF207AD03D0060E066F01D0066B39
:101EA0000ED00251032504250525DF6EDF1CF36EDD
:101EB000FE0EDB50F35C01E1078B066B00D0E552B0
:101EC000E552E7CFD9FF12009EAA0AD09E9A5DC1C3
:101ED000E9FF5EC1EAFFEF50E66E8BDFE5521FD0EF
:101EE0009EA807D0080EE66E010EE66E38DFE552BA
:101EF000E552A4AA0BD0A49AB6C1E9FFB7C1EAFF84
:101F0000EF50E66EE5EC18F0E55209D0A4A807D032
:101F1000610EE66E010EE66E22DFE552E55212001A
:101F2000F7EF0DF0D9CFE6FFE1CFD9FF590E1D6EC7
:101F30001E6AFD0EDBCF22F0FE0EDBCF23F081EC1C
:101F400019F01BC0C7F11CC0C8F1080E0101C7275A
:101F5000010EC823F29CC7C1E9FFC8C1EAFF020E07
:101F6000E926000EEA22FB0EDBCFEEFFFC0EDBCFF4
:101F7000EDFFC7C1E9FFC8C1EAFFEE52F90EDBCFA2
:101F8000EFFFF28CFD0EDBCFE6FFFE0EDBCFE6FFB0
:101F900093DEE552E552E552E7CFD9FF1200D9CFE3
:101FA000E6FFE1CFD9FFFD0EDBCFE9FFFE0EDBCF71
:101FB000EAFF590EEA02F3CFEAFFE902F3CFE9FFA5
:101FC000F450EA26080EE926010EEA22EE52EF50FE
:101FD000000801E2E8D7F80EDBCF2BF0F90EDBCFDB
:101FE0002CF02C3404E22B505008000E2C5407E245
:101FF000500EF36EF80EF3CFDBFFF90EDB6AFA0E2C
:10200000DBCFE6FFFB0EDBCFE6FFFC0EDBCFE6FF10
:10201000BB0EE66E010EE66EFDEC19F0F56E050ED8
:10202000E15EF550F80EDBCFE6FFF90EDBCFE6FF01
:10203000BB0EE66E010EE66EFD0EDBCFE6FFFE0E7A
:10204000DBCFE6FF6FDFF56E060EE15EF550000EAA
:1020500000D0E552E7CFD9FF1200D9CFE6FFE1CF9C
:10206000D9FF590E1D6E1E6AFD0EDBCF22F0FE0E4B
:10207000DBCF23F081EC19F01BC0C9F11CC0CAF101
:10208000080E0101C927010ECA23C9C1E9FFCAC14F
:10209000EAFF570EE926000EEA22EE50EFCFEAFFE4
:1020A000E96EFB0EDBCFEFFFD950FD0FE96EFF0E9F
:1020B000DA20EA6EEE50ED1003E19EA8FED702D0C2
:1020C000A4A8FED7E552E7CFD9FF1200D9CFE6FF8B
:1020D000E1CFD9FF01010951000801E2FBD75C51B2
:1020E0005C2BEA6A0C0FE96E010EEA22FE0EDBCFD2
:1020F000EFFFDB500D0803E0500E5C5D0FE3F29C38
:102100000C0E0A6F010E0B6F5CC109F1F28C5C6B57
:10211000000EE66EE66AD0DDE552E552E552E7CF05
:10212000D9FF1200010107AD02D0010E02D0000E4E
:1021300000D01200D9CFE6FFE1CFD9FF020EE12691
:10214000010EDB6A010107AD04D007BB02D0DB50F2
:1021500068D0090EF36EFE0EDBCFF4FFF350F45C93
:1021600013E2FE0EDB042B6E010E2B5204E0E84658
:10217000FE0B2B06FCE1DF6EDF5001010515E76E5B
:10218000010EE7CFDBFF4BD0110EF36EFE0EDBCF5F
:10219000F4FFF350F45C14E2FE0EDB50F70F2B6EED
:1021A000010E2B5204E0E846FE0B2B06FCE1DF6E2D
:1021B000DF5001010415E76E010EE7CFDBFF2FD0E2
:1021C000190EF36EFE0EDBCFF4FFF350F45C14E255
:1021D000FE0EDB50EF0F2B6E010E2B5204E0E84693
:1021E000FE0B2B06FCE1DF6EDF5001010315E76EED
:1021F000010EE7CFDBFF13D0FE0EDB50E70F2B6E97
:10220000010E2B5204E0E846FE0B2B06FCE1DF6ECC
:10221000DF5001010215E76E010EE7CFDBFFDB5057
:0E22200000D0D9CFE1FFE552E7CFD9FF120081
:02222E00D9CF06
:10223000E6FFE1CFD9FFFD0EDBCF2BF0FE0EDBCFAB
:102240002CF0FB0EDBCF2DF0FC0EDBCF2EF02C5054
:102250002E18E8AE02D02E3404D02D502B5C2E5018
:102260002C580DE2FB0EDBCF1DF0FC0EDBCF1EF079
:10227000FD0E1DC0DBFFFE0E1EC0DBFF23D0FD0EDA
:10228000DBCF2BF0FE0EDBCF2CF0F90EDBCF2DF0E9
:10229000FA0EDBCF2EF02E502C18E8AE02D02C34E4
:1022A00004D02B502D5C2C502E580CE2F90EDBCFB5
:1022B0001DF0FA0EDBCF1EF0FD0E1DC0DBFFFE0E83
:1022C0001EC0DBFFFD0EDBCF2BF0FE0EDBCF2CF0B4
:1022D0002BC0F3FF2CC0F4FF00D0E552E7CFD9FFAD
:1022E000120081B402D08D8001D08D90120063EC79
:1022F0001CF0F0EF0AF0200EE66E020EE66E50ECD7
:102300000BF0E552E552020121AF02D019D801D0FD
:10231000A9D813C2E6FF12C2E6FF11C2E6FF10C23F
:10232000E6FFD7EC16F0E552E552E552E552000E15
:10233000E66E020EE66E69EC0BF0E552E552120015
:10234000010E2B6E02012351200B01E0010E2B5CCC
:10235000010BF36EF346F346F346F346F346DF0E06
:102360002315F310236F010E2B6E2351100B01E088
:10237000010E2B5C010BF36EF346F346F346F34676
:10238000EF0E2315F310236F010E2B6E2351800BDC
:1023900001E0010E2B5C010BF36EF346F346F346AE
:1023A000F346F346F346F3467F0E2315F310236FEF
:1023B000010E2B6E2251010B2B5C010BF36EFE0EF6
:1023C0002215F310226F22A105D0010E0201476FE2
:1023D000486B03D00201476B486B02012351200B6D
:1023E00007E02351100B04E10201416B426B0ED058
:1023F0002351200B08E12351100B05E0020E0201CE
:10240000416F426B03D00201416B426B02012351C9
:10241000400B07E02351800B04E10201456B466B42
:102420000FD02351400B08E12351800B05E0020E31
:102430000201456F466B04D0010E0201456F466BE9
:1024400002012351400B0DE02351800B0AE0235180
:10245000200B07E02351100B04E0010E0201496F2D
:102460004A6B120055EC1CF002012E512B6E2C6AA7
:102470007F0E2B5E000E2C5A030E226E236A2BC099
:102480001DF02CC01EF05BEC19F01DC02BF01EC01F
:102490002CF07F0E2B26000E2C222BC0E6FF2CC02A
:1024A000E6FF02012651E66EE66A2A51E66EE66A0A
:1024B000A0EC13F0F56E060EE15EF55012DF02019E
:1024C0002B512B6E2C6AFE0ED8802B56000E2C56EC
:1024D0002BC02BF227512B6E2C6AFE0ED8802B5668
:1024E000000E2C562BC027F22F512B6E2C6AFE0E9D
:1024F000D8802B56000E2C562BC02FF22B510101E9
:10250000CF6FD06B030E1D6E1E6ACFC122F0D0C1FB
:1025100023F081EC19F01BC0D3F11CC0D4F1020EE2
:10252000226E236AD3C11DF0D4C11EF05BEC19F0FA
:102530001DC0D3F11EC0D4F10101450ED880D35780
:10254000030ED4579F0EE66EFFEC17F0E552F3CF63
:102550002BF0F4CF2CF02BC0E6FF2CC0E6FFD3C14C
:10256000E6FFD4C1E6FFCFC1E6FFD0C1E6FFD5C18B
:10257000E6FFD6C1E6FFCDC1E6FFCEC1E6FFF80E0D
:10258000E66E370EE66E000EE66E49EC1AF0F56E5A
:102590000D0EE15EF5500101D63504E2D55100087B
:1025A000000ED65514E29F0EE66EFFEC17F0E552D2
:1025B000F3CF2BF0F4CF2CF00101D3512B5CD4518D
:1025C0002C5805E28D928C92CD6BCE6B16D0800E7E
:1025D000D61513E09F0EE66EFFEC17F0E552F3CF31
:1025E0002BF0F4CF2CF001012B50D35D2C50D4599B
:1025F00004E28D928C92CD6BCE6B030E2C6ACF25AC
:102600002B6ED0512C222C50D219E8AE02D0D235EC
:1026100004D0D1512B5CD2512C5813E3CFC12DF0F3
:10262000D0C12EF0030E2D5E000E2E5AD2512E1860
:10263000E8AE02D02E3404D02D50D15D2E50D259A8
:1026400007E2010ECD6FCE6BCFC1D1F1D0C1D2F177
:10265000010ECD1901E1CE512FE19F0EE66EFFEC88
:1026600017F0E552F3CF2BF0F4CF2CF001012B50F3
:10267000D35D2C50D45906E28D828C92010ED56F19
:10268000D66B1AD09F0EE66EFFEC17F0E552F3CF33
:102690002BF0F4CF2CF00101D3512B5CD4512C58EA
:1026A00005E28D928C82D569D66906D08D928C9286
:1026B000D56BD66BCD6BCE6B360E02012F5D04E26F
:1026C00002019A0E086F11D02F512B6E2C6A2C34F8
:1026D00004E22B50C808000E2C5404E20201640EE0
:1026E000086F03D002017F0E086F360E0201275DCE
:1026F00003E28D948C840FD027512B6E2C6A2C34DE
:1027000004E22B50C808000E2C5403E28D848C94F4
:1027100002D08D948C942351040B06E02351080BB6
:1027200003E08D888C980BD02351080B06E12351D0
:10273000040B03E18D988C8802D08D988C98120040
:10274000D9CFE6FFE1CFD9FF060EE126F90EDBCFA8
:102750002BF0FA0EDBCF2CF07F0E2B5E000E2C5AE6
:102760002BC0DEFF2CC0DDFFFE0EE66EE66A000E1B
:10277000E66EE66AFD0EDBCF2DF0FE0EDBCF2EF00F
:10278000D8802D56000E2E56FB0EDBCF1DF0FC0E12
:10279000DBCF1EF02D501D5C2B6E2E501E582C6E64
:1027A0007F0E2B26000E2C222BC0E6FF2CC0E6FF4E
:1027B00017EC11F0F56E060EE15EF550020EF3CF48
:1027C000DBFF030EF4CFDBFFFE0EE66EE66A000EC3
:1027D000E66EE66AFB0EDBCF2DF0FC0EDBCF2EF0B3
:1027E000FD0EDB502D5C2B6EFE0EDB502E582C6E3A
:1027F0007F0E2B26000E2C222BC0E6FF2CC0E6FFFE
:1028000017EC11F0F56E060EE15EF550040EF3CFF5
:10281000DBFF050EF4CFDBFFFE0EE66EE66A000E70
:10282000E66EE66A020EDBCF2DF0030EDBCF2EF054
:10283000DE502D242B6EDD502E202C6E2BC0E6FF9B
:102840002CC0E6FF17EC11F0F56E060EE15EF550B8
:10285000F3CF04F2FE0EE66EE66A000EE66EE66A5E
:10286000020EDBCF2DF0030EDBCF2EF0DE502D5C01
:102870002B6EDD502E582C6E2BC0E6FF2CC0E6FFD1
:1028800017EC11F0F56E060EE15EF550F3CF07F28E
:10289000FE0EE66EE66A000EE66EE66A040EDBCF1A
:1028A0002DF0050EDBCF2EF0DE502D5C2B6EDD50B3
:1028B0002E582C6E2BC0E6FF2CC0E6FF17EC11F053
:1028C000F56E060EE15EF550F3CF05F2FE0EE66EF4
:1028D000E66A000EE66EE66A040EDBCF2DF0050E0A
:1028E000DBCF2EF0DE502D242B6EDD502E202C6EF3
:1028F0002BC0E6FF2CC0E6FF17EC11F0F56E060EBC
:10290000E15EF550F3CF06F2020EE66EE66A0ED8EF
:10291000E552E552040EE66EE66A08D8E552E55245
:10292000D9CFE1FFE552E7CFD9FF1200D9CFE6FFBB
:10293000E1CFD9FFD950FD0FE96EFF0EDA20EA6E24
:10294000010EEE1801E1ED500CE1020104512B6E75
:102950002C6AFE0ED8802B56000E2C562BC004F28B
:1029600039D0D950FD0FE96EFF0EDA20EA6E020E63
:10297000EE1801E1ED500CE1020105512B6E2C6ABD
:10298000FE0ED8802B56000E2C562BC005F222D0FE
:10299000D950FD0FE96EFF0EDA20EA6E030EEE1835
:1029A00001E1ED500CE1020106512B6E2C6AFE0E86
:1029B000D8802B56000E2C562BC006F20BD00201ED
:1029C00007512B6E2C6AFE0ED8802B56000E2C560B
:1029D0002BC007F2E552E7CFD9FF1200D9CFE6FFAF
:1029E000E1CFD9FFD950FD0FE96EFF0EDA20EA6E74
:1029F0007F0EEE5E000EED5A040E2B6E2C6AFD0E5D
:102A0000DBCF1DF0FE0EDBCF1EF02BC022F02CC062
:102A100023F05BEC19F0FD0E1DC0DBFFFE0E1EC0A7
:102A2000DBFFD950FD0FE96EFF0EDA20EA6E7F0E54
:102A3000EE26000EED22D950FB0FE96EFF0EDA20D4
:102A4000EA6E7F0EEE5E000EED5A040E2B6E2C6ABF
:102A5000FB0EDBCF1DF0FC0EDBCF1EF02BC022F0F7
:102A60002CC023F05BEC19F0FB0E1DC0DBFFFC0E4D
:102A70001EC0DBFFD950FB0FE96EFF0EDA20EA6EB5
:102A80007F0EEE26000EED22D950F90FE96EFF0EF3
:102A9000DA20EA6E7F0EEE5E000EED5A020E2B6E0D
:102AA0002C6AF90EDBCF1DF0FA0EDBCF1EF02BC027
:102AB00022F02CC023F05BEC19F0F90E1DC0DBFFF7
:102AC000FA0E1EC0DBFFD950F90FE96EFF0EDA20B7
:102AD000EA6E7F0EEE26000EED22F90EDBCFE6FF4A
:102AE000FA0EDBCFE6FFFB0EDBCFE6FFFC0EDBCF03
:102AF000E6FFFD0EDBCFE6FFFE0EDBCFE6FF20DEBE
:102B0000F56E060EE15EF550E552E7CFD9FF1200F3
:102B1000000EE96EEA6E040095EC15F0EA2A080E44
:102B2000EA5CD8A48BEF15F01200EF6AE93E95EF4E
:102B300015F01200FF0EE3CF09F009380F0B060F56
:102B4000D8B2070F2A0FAD6E53EC17F009500F0BD8
:102B5000060FD8B2070F2A0FAD6E53EC17F0000C1A
:102B60001200EACF04F0E9CF05F0FF0EE3CFEAFF51
:102B7000FE0EE3CFE9FF40A741D0EECFA0F0EECFAD
:102B8000A1F0EECFA2F0EECFA3F0EECFA4F0EECF07
:102B9000A5F0EECFA6F0EECFA7F0EECFA8F0EECFE7
:102BA000A9F0EECFAAF0EECFABF0EECFACF0EECFC7
:102BB000ADF0EECFAEF0EECFAFF0EECFB0F0EECFA7
:102BC000B1F0EECFB2F0EECFB3F0EECFB4F0EECF87
:102BD000B5F0EECFB6F0EECFB7F0EECFB8F0EECF67
:102BE000B9F0EECFBAF0EECFBBF0EECFBCF0EECF47
:102BF000BDF0EECFBEF0EECFBFF040D0EECF80F014
:102C0000EECF81F0EECF82F0EECF83F0EECF84F006
:102C1000EECF85F0EECF86F0EECF87F0EECF88F0E6
:102C2000EECF89F0EECF8AF0EECF8BF0EECF8CF0C6
:102C3000EECF8DF0EECF8EF0EECF8FF0EECF90F0A6
:102C4000EECF91F0EECF92F0EECF93F0EECF94F086
:102C5000EECF95F0EECF96F0EECF97F0EECF98F066
:102C6000EECF99F0EECF9AF0EECF9BF0EECF9CF046
:102C7000EECF9DF0EECF9EF0EECF9FF004C0EAFFC6
:102C800005C0E9FF120040A11200EACF04F0E9CF2D
:102C900005F0FF0EE3CFEAFFFE0EE3CFE9FF40A908
:102CA00041D0C0C0EEFFC1C0EEFFC2C0EEFFC3C046
:102CB000EEFFC4C0EEFFC5C0EEFFC6C0EEFFC7C04A
:102CC000EEFFC8C0EEFFC9C0EEFFCAC0EEFFCBC02A
:102CD000EEFFCCC0EEFFCDC0EEFFCEC0EEFFCFC00A
:102CE000EEFFD0C0EEFFD1C0EEFFD2C0EEFFD3C0EA
:102CF000EEFFD4C0EEFFD5C0EEFFD6C0EEFFD7C0CA
:102D0000EEFFD8C0EEFFD9C0EEFFDAC0EEFFDBC0A9
:102D1000EEFFDCC0EEFFDDC0EEFFDEC0EEFFDFC089
:102D2000EEFF40D0E0C0EEFFE1C0EEFFE2C0EEFFFC
:102D3000E3C0EEFFE4C0EEFFE5C0EEFFE6C0EEFF4D
:102D4000E7C0EEFFE8C0EEFFE9C0EEFFEAC0EEFF2D
:102D5000EBC0EEFFECC0EEFFEDC0EEFFEEC0EEFF0D
:102D6000EFC0EEFFF0C0EEFFF1C0EEFFF2C0EEFFED
:102D7000F3C0EEFFF4C0EEFFF5C0EEFFF6C0EEFFCD
:102D8000F7C0EEFFF8C0EEFFF9C0EEFFFAC0EEFFAD
:102D9000FBC0EEFFFCC0EEFFFDC0EEFFFEC0EEFF8D
:102DA000FFC0EEFF04C0EAFF05C0E9FF1200F2B465
:102DB000120016500F0AD8B41200FF0EE3CF0AF02B
:102DC000FE0EE3CF0BF0FD0EE3CF0CF0FC0EE3CFD5
:102DD0000DF00A2A16A08D8E0B2A16A28F800C2ABF
:102DE00016A48F860D2A16A68F880E6A0F6A106A9F
:102DF000116A2AEC17F00A2E00EF17F016A08D9E2C
:102E00000B2E05EF17F016A28F900C2E0AEF17F07D
:102E100016A48F9600000D2E10EF17F016A68F98AF
:102E200000000E2E15EF17F0129000000F2E1AEF73
:102E300017F012920000102E1FEF17F012940000EE
:102E4000112E24EF17F012964CEC17F0133EFBEF07
:102E500016F01200D70E136E0000000000000000F4
:102E600042EC17F0132E2CEF17F0D70E136E000064
:102E700000000000000042EC17F0132E37EF17F0AF
:102E800000001200000045EF17F0000000000000F5
:102E90000000000000001200030E146E0000142E4B
:062EA0004EEF17F01200D6
:0A2EA6009EB802D0FDD7FCD7120041
:102EB000D9CFE6FFE1CFD9FFFE0EDBCFE6FF9AECDC
:102EC00015F0E5520D0EAD6EEEDFE552E7CFD9FFFE
:102ED0001200D9CFE6FFE1CFD9FF0201D950FD0F93
:102EE0004B6FFF0EDA204C6F010EEA6A4B25E96E3C
:102EF0004C51EA22EF50E66E9AEC15F0E5524BC2C7
:102F0000E9FF4CC2EAFFEF50E66E9AEC15F0E5528D
:102F10000D0EAD6EC8DFE552E7CFD9FF1200D9CF55
:102F2000E6FFE1CFD9FF02014D6B1A0E4D5D11E2B4
:102F3000FD0EDBCFE9FFDB2AFE0EDBCFEAFF01E36C
:102F4000DB2AEF50E66E9AEC15F0E55202014D2BAC
:102F5000ECD70D0EAD6EA7DFE552E7CFD9FF12001B
:102F60000201200E4B6F020E4C6F02012051020134
:102F70004F6F506B51514F1902E15251501918E0E7
:102F8000020140A502D040950FD051C2E6FF9AEC55
:102F900015F0E5524FC2E6FF9AEC15F0E5520D0E22
:102FA000AD6E81DF020140954FC251F250C252F224
:102FB0000201512B000E5223523504E25151FF08F9
:102FC000000E525502E2516B526B1200150EE66E66
:102FD0003C0EE66EA6EC1BF0E552E552320EE66EB4
:102FE0009FEC1CF0E5521200D9CFE6FFE1CFD9FFEC
:102FF000FE0EDBCF4EF2E552E7CFD9FF1200D9CF5C
:10300000E6FFE1CFD9FF020EE1260F0EE66EFE0EBF
:10301000DB507F0BFE0BFD0BE66EF10EE66E0DEC4A
:103020001BF0E552E552E5520A0EE66EBDEC1CF0CF
:10303000E552D4EC1CF007EC04F0000901E0FBD7EA
:1030400020EC1CF0D1EC1CF0C4502D6E2DC02EF0E5
:103050002D6AC35000012D102B6E2EC02CF02BC0FA
:10306000DEFF2CC0DDFFDECF2BF0DDCF2CF02BC040
:10307000F3FF2CC0F4FF00D0D9CFE1FFE552E7CF3A
:04308000D9FF120062
:0C308400D8CFE4FFE0CFE4FFE46EDACF29
:10309000E4FFE2CFDAFFE9CFE4FFEACFE4FFF3CFCA
:1030A000E4FFF4CFE4FFE652D9CFE6FFE1CFD9FF4A
:1030B000E652F050020B05E0F050100B02E0F092E7
:1030C00014D0F050040B05E0F050200B02E0F09417
:1030D0000CD0F250010B07E0F250080B04E08150D5
:1030E000DF6EF29002D064EC0FF0E552E552E7CFCC
:1030F000D9FFE552E5CFF4FFE5CFF3FFE5CFEAFFD7
:10310000E5CFE9FFE5CFDAFFE550E5CFE0FFE5CF1A
:10311000D8FF100002017F0E0B6F0BC20AF20BC228
:1031200009F20BC208F20BC207F20BC206F20BC285
:1031300005F20BC204F2136F13C212F213C211F2A2
:1031400013C210F213C20FF213C20EF213C20DF229
:1031500013C20CF263EC1CF08C928D928C908D90CB
:103160008C968D968C948D948C9A8D9A8C988D9843
:103170008C9E91908C9C8D9C020121AD24D00201EB
:1031800040A120D0200EE66E020EE66E50EC0BF051
:10319000E552E552EDEC18F013C2E6FF12C2E6FF6D
:1031A00011C2E6FF10C2E6FFD7EC16F0E552E55279
:1031B000E552E552000EE66E020EE66E69EC0BF08B
:1031C000E552E552D9D712001200D9CFE6FFE1CF80
:0A31D000D9FFE552E7CFD9FF120046
:0631DA0002015A3504E277
:1031E00059519008010E5A5506E3592B000E5A23E7
:1031F0008D828C9226D05A3504E259510808020E6D
:103200005A5508E3592B000E5A238D928C928D84C7
:103210008C9417D05A3504E259511708020E5A55AA
:103220000BE3592B000E5A230201640E086F8D9494
:103230008C948D988C8805D08D988C8802017F0E97
:10324000086F1200780E02015AAF02D0D89003D056
:10325000595D000E5A5913E2C80EE66EE66A7F0EFB
:10326000E66EE66AE66EE66AA0EC13F0F56E060E10
:10327000E15EF5500201592B000E5A231BD0F00ECF
:103280005AAF02D0D89003D0595D000E5A5912E2BD
:10329000380EE66EE66A7F0EE66EE66AE66EE66A6F
:1032A000A0EC13F0F56E060EE15EF5500201592B0D
:0632B000000E5A2312007B
:0A32B600256A23AE64EF19F0226CC4
:1032C000231EE86A2322251E1EAE6CEF19F01D6C2A
:1032D0001E1EE86A1E22251E3FEC1CF01EBE7CEF5F
:1032E00019F025AE000C1D6C1E1EE86A1E22196C1A
:1032F0001A1EE86A1A22000C25BE73EF19F0268800
:10330000FF0C1EC02AF01DC029F01D502202F4CF70
:103310001CF0F3CF1BF01E502302F4CF1EF0F3CFAE
:103320001DF02202F3501C26F4501D22E86A1E22D2
:1033300029502302F3501C26F4501D22E86A1E2255
:1033400023AEA7EF19F029501D5E2A501E5A2AAE4F
:0C335000000C22501D5E23501E5A000C81
:04335C001E0EF66EDD
:10336000080EF76E000EF86E01010900F550F96FB6
:103370000900F550FA6F03E1F96701D03DD009006B
:10338000F550F46F0900F550F56F0900F550F66F30
:1033900009000900F550E96E0900F550EA6E0900D0
:1033A00009000900F550F76F0900F550F86F0900A2
:1033B0000900F6CFFBF1F7CFFCF1F8CFFDF1F4C136
:1033C000F6FFF5C1F7FFF6C1F8FF0101F75302E17F
:1033D000F85307E00900F550EE6EF707F8E2F8073A
:1033E000F9D7FBC1F6FFFCC1F7FFFDC1F8FF0101F2
:0A33F000F907000EFA5BBFD71200C8
:0633FA00FB0EE3CFF6FF1D
:10340000FC0EE3CFF7FFFD0EE3CFF8FFFE0EE3CF98
:10341000E9FFFF0EE3CFEAFFE9CFF3FFEACFF4FFC6
:103420000900F5CFEFFFEE66FBD71200FE0EE3CFEB
:10343000E9FFFF0EE3CFEAFFF36AF46AEE5203E01E
:10344000F34AF42AFBD71200FF0EE3CFF8FFE55250
:10345000FF0EE3CFF7FFE552FF0EE3CFF6FFE55295
:10346000E66AE66AE66A0900F55209E0FD0EE32A1B
:1034700005E1FE0EE32A02E1FF0EE32AF4D7FD0E7A
:10348000E3CF1CF0FE0EE3CF1DF0FF0EE3CF1EF0E6
:02349000120028
:0E349200D9CFE6FFDACFE6FFE1CFD9FFE2CFD8
:1034A000DAFFE652E652E652E652D950FB0F2B6E97
:1034B000FF0EDA202C6E2BC0DEFFDD6EDECFE6FFC6
:1034C000DDCFE6FFFB0EDBCFE6FFFC0EDBCFE6FF3A
:1034D000FD0EDBCFE6FFFEC1E6FFFFC1E6FF44ECD9
:1034E00004F0F56E070EE15C02E2E16AE552E16E7E
:1034F000F550020EF3CFDBFF030EF4CFDBFF020E1D
:10350000DBCF2BF0030EDBCF2CF02BC0F3FF2CC056
:10351000F4FFD9CFE1FFDACFE2FFE552E5CFDAFFE2
:06352000E7CFD9FF120005
:0A352600D9CFE6FFDACFE6FFE1CFD0
:10353000D9FFE2CFDAFFFB0EDBCF2BF0FC0EDBCFA7
:103540002CF00001800E2C141AE1FB0EDBCFE9FFFA
:10355000FC0EDBCFEAFFEECFF3FFEDCFF4FFEE2A58
:10356000000EEF22F3CFE9FFF4CFEAFFFD0EDBCF31
:10357000EFFFEF502C6AF36E2CC0F4FF10D0FB0E5F
:10358000DB50FE0806E1FD0EDBCFE6FFAFEC1CF0E2
:1035900005D0FD0EDBCFE6FF03EC04F0E552E5526B
:0A35A000E5CFDAFFE7CFD9FF1200F4
:0635AA001B502002F3CFCC
:1035B00017F0F4CF18F02102F3501826000EF42073
:1035C000196E1B502202F3501926000EF4201A6EB9
:1035D0001B502302F3501A261C502002F3501826C9
:1035E000F4501922000E1A221C502102F350192601
:1035F000F4501A221C502202F3501A261D502002A9
:10360000F3501926F4501A221D502102F3501A26A5
:0A3610001E502002F3501A2612008B
:06361A00D9CFE6FFDACF74
:10362000E6FFE1CFD9FFE2CFDAFFC26AC16AC06A22
:10363000FC0EDB407F0B3C0BC26EFB0EDB50C16E01
:10364000FC0EDB38F00B300BC112FD0EDB50800B93
:10365000C06EFD0EDB380F0B070BC012FD0EDB50EA
:10366000040DF350380BC012FC0EDBAE03D09E9C51
:103670009D8CF28CC280E552E5CFDAFFE7CFD9FF0F
:02368000120036
:0E368200D9CFE6FFDACFE6FFE1CFD9FFE2CFE6
:10369000DAFF3F0EC716C66AFD0EDB50C612FB0EE0
:1036A000DB50C712FC0EDB50030A09E0010A04E0FC
:1036B000020A06E1C78C04D0C78CC68801D0C68830
:1036C000FD0EDB50050A03E0010A04E1978E9486A3
:1036D000C79E01D09496949A9488C68AE552E5CF05
:0836E000DAFFE7CFD9FF120069
:0836E800D9CFE6FFDACFE6FFBF
:1036F000E1CFD9FFE2CFDAFF6C6A6B6AFD0EDBB077
:103700006C88DBA202D06C8C6B8CDBB46C8EDBA67D
:1037100002D06B8801D06B8ADBA802D06C8401D008
:103720006C94DBAC02D0A38A01D0A39ADBAE02D0AA
:10373000A38801D0A398FC0EDB506F6E6C8A6B8E51
:0C374000E552E5CFDAFFE7CFD9FF120019
:04374C00D9CFE6FFEC
:10375000DACFE6FFE1CFD9FFE2CFDAFFAC6AAB6A9E
:10376000FD0EDBB0AC88DBA202D0AC8CAB8CDBB442
:10377000AC8EDBA602D0AB8801D0AB8ADBA802D02E
:10378000AC8401D0AC94DBAC02D09D8A01D09D9A70
:10379000DBAE02D09D8801D09D98FC0EDB50AF6E51
:1037A000AC8AAB8EE552E5CFDAFFE7CFD9FF120046
:1037B0001A6A196A186A176A200EE76ED8901B36C3
:1037C0001C361D361E361736183619361A36205056
:1037D000175C215018582250195823501A5809E3E1
:1037E0002050175E2150185A2250195A23501A5A45
:0837F0001B2AE72EE4D71200AA
:0837F80073686D6F76652025F2
:1038000034642C20646972656374696F6E2025339B
:10381000642C2063757272656E745F736820253244
:10382000642C207461726765745F73682025642C52
:0F383000206C6F7765725F706F742025640D00D8
:10384000D9CFE6FFDACFE6FFE1CFD9FFE2CFDAFF4B
:10385000E652E652C350DF6E010EC4CFDBFFDECF6F
:103860002BF0DDCF2CF02BC0F3FF2CC0F4FFE55282
:0E387000E552E552E5CFDAFFE7CFD9FF1200AF
:02387E001A6AC4
:10388000196A100EE76ED8901D361E3619361A3694
:103890002250195C23501A5805E32250195E235018
:0A38A0001A5A1D2AE72EF0D7120075
:0638AA00020123A305D07A
:1038B00002017F0E096F0A6F05D002010A0E096F1F
:1038C000F40E0A6F120002010A0E096FF40E0A6F5D
:0238D0001200E4
:0E38D200A7EC0AF077EC11F002014091020120
:1038E00040A107D07BEC11F0020121AD02D08AEC9F
:0A38F00018F0E4EC18F0F3D7120012
:0638FA00F36AF46AFF0E00
:10390000E124E96EFF0EE220EA6EED6607D02F0E8D
:0E391000EF6404D03A0EEF6001D0F32A1200EB
:02391E001EEE9B
:1039200000F02EEE00F0F86A269CA68EA69C88EC8D
:0E39300015F0AEEC19F069EC1CF0F9D712009E
:02393E00FF0E7A
:10394000E350326E480E01D04C0EE76EE72EFED7E4
:0E395000E76AE72EFED7322EF7D700001200EE
:02395E00FF0E5A
:10396000E350ACBA04D0AF6AAB8EAC8A949CACA2E4
:0A397000FED7AD6EF36EF46A12008C
:06397A00FF0EE350E84ED1
:103980001200000000D000D000D0E82EFAD71200BC
:1039900030313233343536373839616263646566C5
:0139A0000026
:0639A200C2909D9C120082
:0439A800C2821200C5
:0439AC000000000017
:1039B0008000800080000000000000008000800087
:0839C00080000000000000007F
:0239C800FEFF00
:0439CA0000000000F9
:0239CE000000F7
:0239D0000000F5
:0439D20000000000F1
:020000040030CA
:0E000000FF36F6FEFFFF8BFFFFBFFF9FFFBF27
:00000001FF
